:020000040800F2
:1000000060060020450200084D0200084F0200086B
:1000100051020008530200085502000800000000C9
:10002000000000000000000000000000570200086F
:1000300059020008000000005B0200085D02000891
:100040005F0200085F0200085F0200085F0200080C
:100050005F0200085F0200085F0200085F020008FC
:100060005F0200085F0200085F0200085F020008EC
:100070005F0200085F0200085F0200085F020008DC
:100080005F0200085F0200085F0200080000000035
:100090000000000000000000000000005F020008F7
:1000A0005F0200085F0200085F0200085F020008AC
:1000B0005F0200085F0200085F0200085F0200089C
:1000C0005F0200085F0200085F0200085F0200088C
:1000D0005F0200085F0200085F02000800000000E5
:1000E0005F0200085F0200085F02000800000000D5
:1000F0000000000000000000000000005F02000897
:10010000000000005F0200085F0200085F020008B4
:1001100000000000000000000000000000000000DF
:100120005F0200085F0200085F0200085F0200082B
:100130005F02000800000000000000000000000056
:100140000000000000000000000000005F02000846
:100150005F0200085F0200085F0200085F020008FB
:100160005F0200085F0200080000000000000000BD
:10017000000000000000000000000000000000007F
:10018000000000005F020008000000000000000006
:100190005F02000800F002F800F044F814A696E8A8
:1001A000000CB244B344DA4501D100F03BF8BAE8A0
:1001B0000F000FA696E83000A5EB040504EB060738
:1001C000AAEB0704A7F101074FEA15154FEA34140B
:1001D000A4F10104AC4201D300F024F813F0010FA4
:1001E00018BFFB1A43F0010300F001F8DBE71847E2
:1001F000E8040000F8040000704700000023002419
:1002000000250026103A28BF78C1FBD8520728BF26
:1002100030C148BF0B6070471FB500F050FA1FBDDA
:1002200010B510BD00F031F81146FFF7F5FF00F0F2
:1002300007F900F04FF803B4FFF7F2FF03BC00F03A
:1002400057F800000948804709480047FEE7FEE7E5
:10025000FEE7FEE7FEE7FEE7FEE7FEE7FEE7FEE776
:1002600004480549054A064B70470000E5030008AD
:100270009501000860000020600600206002002058
:1002800060020020704770477047754600F02CF8F8
:10029000AE4605006946534620F00700854618B073
:1002A00020B5FFF7DDFFBDE820404FF000064FF01E
:1002B00000074FF000084FF0000BAC46ACE8C00957
:1002C000ACE8C009ACE8C009ACE8C00921F00701FE
:1002D0008D46704710B50446AFF300802046BDE858
:1002E0001040FFF7A8BF0000004870470000002042
:1002F00001491820ABBEFEE726000200704700004F
:1003000084B002900298019000200090FFE70298CC
:10031000E8B1FFE7009800EB8002029846F26761BF
:10032000C6F2666150FB01FC4FEAAC0303EBDC73E1
:1003300003EB8303A0EB430000EB42000090029824
:1003400050FB01F1881000EBD1700290DFE70198BB
:100350000099884203D1FFE70120039002E00020CA
:100360000390FFE7039804B07047000083B001904A
:100370000198012803D1FFE7002002902FE00198A7
:10038000022803D1FFE70120029028E0019800EB4A
:10039000D07121F00101401A18B9FFE70020029046
:1003A0001DE003200090FFE700980199884210DAD1
:1003B000FFE7019A009992FBF1F000FB112018B9B8
:1003C000FFE7002002900AE0FFE70098023000906B
:1003D000EAE7FFE7FFE7FFE701200290FFE7029867
:1003E00003B070474EF68851CEF20001086840F421
:1003F000700008607047000081B040F64050C0F2C5
:1004000003000090FFE7009828B1FFE7FFE700989E
:1004100001380090F7E701B07047000081B048F262
:100420008040C0F21E000090FFE7009828B1FFE76F
:10043000FFE7009801380090F7E701B0704700002F
:1004400080B584B00020039043F63002C4F202026B
:100450000321116040F20041C4F20201086040F241
:100460000C41C4F202010860086840F00200086014
:10047000086840F00800086000F04EF8652002901F
:10048000FFE740F21040C4F20200006800F00300F1
:100490000190019801384008B8BBFFE70198012896
:1004A00014D1FFE7029801300290FFE70298FFF7AE
:1004B00027FF30B1FFE70298FFF758FF08B1FFE7C9
:1004C00003E0029801300290F0E71DE00198022855
:1004D00019D1FFE70298032814DBFFE702980138DF
:1004E0000290FFE70298FFF70BFF30B1FFE7029899
:1004F000FFF73CFF08B1FFE703E0029801380290E4
:10050000F0E7FFE7FFE7FFE7FFE7029800F0A8F852
:10051000FFF784FFB5E700000021C4F2020108687C
:1005200040F480600860086840F480500860086803
:1005300040F480400860086840F480300860086833
:1005400040F480200860086840F480100860086863
:1005500040F480000860086840F0807008607047D0
:1005600081B00090009840B9FFE71421C4F2020165
:10057000086840F0600008606FE00098012808D12A
:10058000FFE71421C4F20201086840F49F5008609C
:1005900062E00098022808D1FFE71421C4F20201AA
:1005A000086840F49460086055E00098032808D17A
:1005B000FFE71421C4F20201086840F4D07008601B
:1005C00048E00098042808D1FFE71421C4F2020192
:1005D000086840F4995008603BE00098052808D16D
:1005E000FFE71421C4F20201086840F412600860B9
:1005F0002EE00098062808D1FFE71421C4F202017A
:10060000086840F40260086021E00098072808D1DB
:10061000FFE71421C4F20201086840F47870086012
:1006200014E00098082808D1FFE71421C4F2020161
:10063000086840F02000086007E01421C4F20201BD
:10064000086840F490700860FFE7FFE7FFE7FFE706
:10065000FFE7FFE7FFE7FFE7FFE701B070470000B4
:1006600080B582B00190FFE7019830B3FFE70198B1
:1006700046F26761C6F2666150FB01F39A1002EB25
:10068000D37202EB8202A0EB42000090019850FB73
:1006900001F1881000EBD17001900098FFF760FF26
:1006A000FFF7AAFE1421C4F20201086847F6E072BF
:1006B00090430860FFF7A0FED6E702B080BDF1EEE0
:1006C000100A4FF6FF71C0F2C03120EA010040F07D
:1006D0004070E1EE100A7047E806000800000020B4
:0806E00060060000FC010008A7
:040000050800019559
:00000001FF
